{
  "contractName": "AuctionContract",
  "abi": [
    {
      "inputs": [],
      "name": "bidder",
      "outputs": [
        {
          "internalType": "address",
          "name": "",
          "type": "address"
        }
      ],
      "stateMutability": "view",
      "type": "function"
    },
    {
      "inputs": [
        {
          "internalType": "address",
          "name": "",
          "type": "address"
        },
        {
          "internalType": "int64",
          "name": "",
          "type": "int64"
        },
        {
          "internalType": "address",
          "name": "",
          "type": "address"
        }
      ],
      "name": "mapAuction",
      "outputs": [
        {
          "internalType": "address",
          "name": "tokenId",
          "type": "address"
        },
        {
          "internalType": "int64",
          "name": "serialNumber",
          "type": "int64"
        },
        {
          "internalType": "uint256",
          "name": "basePrice",
          "type": "uint256"
        },
        {
          "internalType": "address",
          "name": "auctioner",
          "type": "address"
        },
        {
          "internalType": "address",
          "name": "currentBidder",
          "type": "address"
        },
        {
          "internalType": "uint256",
          "name": "bidAmount",
          "type": "uint256"
        }
      ],
      "stateMutability": "view",
      "type": "function"
    },
    {
      "inputs": [
        {
          "internalType": "address",
          "name": "tokenId",
          "type": "address"
        },
        {
          "internalType": "int64",
          "name": "serialNumber",
          "type": "int64"
        },
        {
          "internalType": "uint256",
          "name": "basePrice",
          "type": "uint256"
        }
      ],
      "name": "createAuction",
      "outputs": [],
      "stateMutability": "payable",
      "type": "function"
    },
    {
      "inputs": [
        {
          "internalType": "address",
          "name": "_tokenId",
          "type": "address"
        },
        {
          "internalType": "int64",
          "name": "_serialNumber",
          "type": "int64"
        },
        {
          "internalType": "uint256",
          "name": "_price",
          "type": "uint256"
        },
        {
          "internalType": "address",
          "name": "_auctioner",
          "type": "address"
        }
      ],
      "name": "placeBid",
      "outputs": [],
      "stateMutability": "payable",
      "type": "function"
    },
    {
      "inputs": [
        {
          "internalType": "address",
          "name": "_tokenId",
          "type": "address"
        },
        {
          "internalType": "int64",
          "name": "_serialNumber",
          "type": "int64"
        },
        {
          "internalType": "address",
          "name": "_auctioner",
          "type": "address"
        }
      ],
      "name": "settleAuction",
      "outputs": [],
      "stateMutability": "nonpayable",
      "type": "function"
    },
    {
      "inputs": [
        {
          "internalType": "address",
          "name": "token",
          "type": "address"
        },
        {
          "internalType": "address",
          "name": "sender",
          "type": "address"
        },
        {
          "internalType": "address",
          "name": "receiver",
          "type": "address"
        },
        {
          "internalType": "int64",
          "name": "serialNumber",
          "type": "int64"
        }
      ],
      "name": "transferNonFungibleToken",
      "outputs": [],
      "stateMutability": "payable",
      "type": "function"
    }
  ],
  "bytecode": "0x608060405234801561001057600080fd5b50610a89806100206000396000f3fe608060405260043610610071577c01000000000000000000000000000000000000000000000000000000006000350463651480b981146100765780636f3f44cf1461008b5780639a37e6811461009e578063b4d17850146100b1578063cd02929f1461017a578063f496d8821461019a575b600080fd5b6100896100843660046108d9565b6101d2565b005b6100896100993660046109ac565b610267565b6100896100ac366004610970565b61052d565b3480156100bd57600080fd5b506101336100cc36600461092d565b6000602081815293815260408082208552928152828120909352825290208054600182015460028301546003840154600490940154600160a060020a03808516957401000000000000000000000000000000000000000090950460070b9492811692169086565b60408051600160a060020a03978816815260079690960b60208701528501939093529084166060840152909216608082015260a081019190915260c0015b60405180910390f35b34801561018657600080fd5b5061008961019536600461092d565b610609565b3480156101a657600080fd5b506001546101ba90600160a060020a031681565b604051600160a060020a039091168152602001610171565b60006101e085858585610795565b9050601681146102605760405160e560020a62461bcd02815260206004820152602360248201527f4661696c656420746f20637265617465206e6f6e2d66756e6769626c6520746f60448201527f6b656e000000000000000000000000000000000000000000000000000000000060648201526084015b60405180910390fd5b5050505050565b600160a060020a03808516600090815260208181526040808320600788810b900b8452825280832093851683529290522060018101548310156103155760405160e560020a62461bcd02815260206004820152602a60248201527f506c61636520426964203a205072696365204c657373205468616e207468652060448201527f62617365207072696365000000000000000000000000000000000000000000006064820152608401610257565b806004015483116103915760405160e560020a62461bcd02815260206004820152603a60248201527f506c61636520426964203a20546865207072696365206973206c65737320746860448201527f656e207468652070726576696f75732062696420616d6f756e740000000000006064820152608401610257565b8234146104095760405160e560020a62461bcd02815260206004820152603360248201527f506c616365204269643a20416d6f756e7420726563656976656420616e64207060448201527f726963652073686f756c642062652073616d65000000000000000000000000006064820152608401610257565b806004015434116104ab5760405160e560020a62461bcd02815260206004820152604160248201527f506c616365204269643a20416d6f756e742072656365697665642073686f756c60448201527f642062652067726174686572207468616e207468652063757272656e7420626960648201527f6400000000000000000000000000000000000000000000000000000000000000608482015260a401610257565b6003810154600160a060020a0316156105005760038101546004820154604051600160a060020a039092169181156108fc0291906000818181858888f193505050501580156104fe573d6000803e3d6000fd5b505b600481019290925550600301805473ffffffffffffffffffffffffffffffffffffffff1916331790555050565b600081116105a65760405160e560020a62461bcd02815260206004820152602160248201527f4372656174652041756374696f6e203a205a65726f206261736520707269636560448201527f2e000000000000000000000000000000000000000000000000000000000000006064820152608401610257565b600160a060020a03909216600090815260208181526040808320600794850b90940b835292815282822033808452915291902060028101805473ffffffffffffffffffffffffffffffffffffffff19169092179091556004810182905560010155565b600160a060020a03808416600090815260208181526040808320600787810b900b845282528083208585168452909152902060038101546001805473ffffffffffffffffffffffffffffffffffffffff191691841691909117905560028101549091339116146106e45760405160e560020a62461bcd02815260206004820152603260248201527f536574746c652041756374696f6e203a205265737472696374656420746f206160448201527f756374696f6e6572206f722061646d696e2100000000000000000000000000006064820152608401610257565b60038101546107009085903090600160a060020a0316866101d2565b50600160a060020a03928316600090815260208181526040808320600795860b90950b83529381528382209290941681529252812080547fffffffff000000000000000000000000000000000000000000000000000000001681556001810182905560028101805473ffffffffffffffffffffffffffffffffffffffff19908116909155600382018054909116905560040155565b60408051600160a060020a038681166024830152858116604483015284166064820152600783900b6084808301919091528251808303909101815260a490910182526020810180517bffffffffffffffffffffffffffffffffffffffffffffffffffffffff167f5cfc901100000000000000000000000000000000000000000000000000000000179052905160009182918291610167916108369190610a18565b6000604051808303816000865af19150503d8060008114610873576040519150601f19603f3d011682016040523d82523d6000602084013e610878565b606091505b50915091508161088957601561089d565b8080602001905181019061089d91906109ee565b60030b979650505050505050565b8035600160a060020a03811681146108c257600080fd5b919050565b8035600781900b81146108c257600080fd5b600080600080608085870312156108ef57600080fd5b6108f8856108ab565b9350610906602086016108ab565b9250610914604086016108ab565b9150610922606086016108c7565b905092959194509250565b60008060006060848603121561094257600080fd5b61094b846108ab565b9250610959602085016108c7565b9150610967604085016108ab565b90509250925092565b60008060006060848603121561098557600080fd5b61098e846108ab565b925061099c602085016108c7565b9150604084013590509250925092565b600080600080608085870312156109c257600080fd5b6109cb856108ab565b93506109d9602086016108c7565b925060408501359150610922606086016108ab565b600060208284031215610a0057600080fd5b81518060030b8114610a1157600080fd5b9392505050565b6000825160005b81811015610a395760208186018101518583015201610a1f565b81811115610a48576000828501525b50919091019291505056fea2646970667358221220bd42082181638b933cf92c1e9be2f8cc5c1194e2c02eab53ac01a468ebedbb7f64736f6c63430008060033",
  "immutableReferences": {},
  "source": "// SPDX-License-Identifier: GPL-3.0\npragma solidity >=0.6.0 <0.9.0;\n \nimport './HederaResponseCodes.sol';\nimport './IHederaTokenService.sol';\nimport './HederaTokenService.sol';\nimport './ExpiryHelper.sol';\n \ncontract AuctionContract is ExpiryHelper{\n\n  /**\n   * @notice NFT metadata along with bid details\n  */\n  struct Auction {\n    address tokenId;\n    int64 serialNumber;\n    uint256 basePrice;\n    address auctioner;\n    address currentBidder;\n    uint256 bidAmount;\n  }  \n   mapping(address => mapping(int64 => mapping(address => Auction))) public mapAuction;\n  address public bidder;\n    /**\n   * @notice createAuction\n   * Function to start auction with first bid.\n   * Validate signatures, stores NFT data and add first bid as well\n   */\n \n   function createAuction(address tokenId, int64 serialNumber, uint256 basePrice) external payable {\n    \n    require(basePrice > 0, 'Create Auction : Zero base price.');\n\n    Auction storage NftOnAuction = mapAuction[tokenId][serialNumber][msg.sender];\n    NftOnAuction.auctioner = msg.sender;\n    NftOnAuction.bidAmount = basePrice;\n    NftOnAuction.basePrice = basePrice;\n  }\n\n    /**\n   * @notice placeBid\n   * Function to place the bid on the nfts using native cryptocurrency and multiple erc20 token\n   * @param _tokenId NFT unique ID\n   * @param _price bid price\n   \n   * @param _auctioner Seller address\n   */\n  function placeBid(\n    address _tokenId,\n    int64 _serialNumber,\n    uint256 _price,\n    address _auctioner\n  ) public payable {\n\n    Auction storage NftOnAuction = mapAuction [_tokenId][_serialNumber][_auctioner];  \n\n    require(_price >= NftOnAuction.basePrice, 'Place Bid : Price Less Than the base price');\n    require(_price > NftOnAuction.bidAmount, 'Place Bid : The price is less then the previous bid amount');\n    require(msg.value == _price, 'Place Bid: Amount received and price should be same');\n    require(msg.value > NftOnAuction.bidAmount, 'Place Bid: Amount received should be grather than the current bid');\n    if (NftOnAuction.currentBidder != address(0)) {\n      payable(NftOnAuction.currentBidder).transfer(NftOnAuction.bidAmount);\n    }\n    NftOnAuction.bidAmount = _price;\n    NftOnAuction.currentBidder = msg.sender;\n  }\n\n  function settleAuction(\n    address _tokenId,\n    int64 _serialNumber,\n    address _auctioner\n  ) public {\n    Auction storage NftOnAuction = mapAuction[_tokenId][_serialNumber][_auctioner];\n    bidder = NftOnAuction.currentBidder;\n    require(msg.sender == NftOnAuction.auctioner, 'Settle Auction : Restricted to auctioner or admin!');\n   transferNonFungibleToken(_tokenId, address(this), NftOnAuction.currentBidder,  _serialNumber);\n    delete mapAuction[_tokenId][_serialNumber][_auctioner];\n  }\n  function transferNonFungibleToken(\n    address token,\n    address sender,\n    address receiver,\n    int64 serialNumber\n  ) public payable {\n \n    (int responseCode) = \n    HederaTokenService.transferNFT(token, sender, receiver, serialNumber);\n\n    if(responseCode != HederaResponseCodes.SUCCESS){\n        revert(\"Failed to create non-fungible token\");\n    }\n  }\n}",
  "sourcePath": "C:\\ACCUBITS\\PROJECT\\HEDERA_NFT\\contracts\\AuctionContract.sol",
  "compiler": {
    "name": "solc",
    "version": "0.8.6+commit.11564f7e.Emscripten.clang"
  },
  "schemaVersion": "3.4.3",
  "updatedAt": "2022-11-16T05:20:51.764Z",
  "devdoc": {
    "kind": "dev",
    "methods": {
      "placeBid(address,int64,uint256,address)": {
        "params": {
          "_auctioner": "Seller address",
          "_price": "bid price",
          "_tokenId": "NFT unique ID"
        }
      }
    },
    "version": 1
  },
  "userdoc": {
    "kind": "user",
    "methods": {
      "createAuction(address,int64,uint256)": {
        "notice": "createAuction Function to start auction with first bid. Validate signatures, stores NFT data and add first bid as well"
      },
      "placeBid(address,int64,uint256,address)": {
        "notice": "placeBid Function to place the bid on the nfts using native cryptocurrency and multiple erc20 token"
      }
    },
    "version": 1
  }
}