{
  "contractName": "AuctionContract",
  "abi": [
    {
      "inputs": [],
      "name": "claimed",
      "outputs": [
        {
          "internalType": "bool",
          "name": "",
          "type": "bool"
        }
      ],
      "stateMutability": "view",
      "type": "function"
    },
    {
      "inputs": [
        {
          "internalType": "address",
          "name": "",
          "type": "address"
        },
        {
          "internalType": "int64",
          "name": "",
          "type": "int64"
        },
        {
          "internalType": "address",
          "name": "",
          "type": "address"
        }
      ],
      "name": "mapAuction",
      "outputs": [
        {
          "internalType": "address",
          "name": "tokenId",
          "type": "address"
        },
        {
          "internalType": "int64",
          "name": "serialNumber",
          "type": "int64"
        },
        {
          "internalType": "uint256",
          "name": "basePrice",
          "type": "uint256"
        },
        {
          "internalType": "address",
          "name": "auctioner",
          "type": "address"
        },
        {
          "internalType": "address",
          "name": "currentBidder",
          "type": "address"
        },
        {
          "internalType": "uint256",
          "name": "bidAmount",
          "type": "uint256"
        },
        {
          "internalType": "bool",
          "name": "readyToClaim",
          "type": "bool"
        },
        {
          "internalType": "bool",
          "name": "claimed",
          "type": "bool"
        }
      ],
      "stateMutability": "view",
      "type": "function"
    },
    {
      "inputs": [],
      "name": "readyToClaim",
      "outputs": [
        {
          "internalType": "bool",
          "name": "",
          "type": "bool"
        }
      ],
      "stateMutability": "view",
      "type": "function"
    },
    {
      "inputs": [
        {
          "internalType": "address",
          "name": "tokenId",
          "type": "address"
        },
        {
          "internalType": "int64",
          "name": "serialNumber",
          "type": "int64"
        },
        {
          "internalType": "uint256",
          "name": "basePrice",
          "type": "uint256"
        }
      ],
      "name": "createAuction",
      "outputs": [],
      "stateMutability": "payable",
      "type": "function"
    },
    {
      "inputs": [
        {
          "internalType": "address",
          "name": "_tokenId",
          "type": "address"
        },
        {
          "internalType": "int64",
          "name": "_serialNumber",
          "type": "int64"
        },
        {
          "internalType": "uint256",
          "name": "_price",
          "type": "uint256"
        },
        {
          "internalType": "address",
          "name": "_auctioner",
          "type": "address"
        }
      ],
      "name": "placeBid",
      "outputs": [],
      "stateMutability": "payable",
      "type": "function"
    },
    {
      "inputs": [
        {
          "internalType": "address",
          "name": "_tokenId",
          "type": "address"
        },
        {
          "internalType": "int64",
          "name": "_serialNumber",
          "type": "int64"
        },
        {
          "internalType": "address",
          "name": "_auctioner",
          "type": "address"
        }
      ],
      "name": "settleAuction",
      "outputs": [],
      "stateMutability": "nonpayable",
      "type": "function"
    },
    {
      "inputs": [
        {
          "internalType": "address",
          "name": "_tokenId",
          "type": "address"
        },
        {
          "internalType": "int64",
          "name": "_serialNumber",
          "type": "int64"
        },
        {
          "internalType": "address",
          "name": "_auctioner",
          "type": "address"
        }
      ],
      "name": "claimAuction",
      "outputs": [],
      "stateMutability": "nonpayable",
      "type": "function"
    },
    {
      "inputs": [
        {
          "internalType": "address",
          "name": "token",
          "type": "address"
        },
        {
          "internalType": "address",
          "name": "sender",
          "type": "address"
        },
        {
          "internalType": "address",
          "name": "receiver",
          "type": "address"
        },
        {
          "internalType": "int64",
          "name": "serialNumber",
          "type": "int64"
        }
      ],
      "name": "transferNonFungibleToken",
      "outputs": [],
      "stateMutability": "payable",
      "type": "function"
    }
  ],
  "bytecode": "0x608060405234801561001057600080fd5b50610ba2806100206000396000f3fe608060405260043610610098576000357c010000000000000000000000000000000000000000000000000000000090048063b4d178501161006b578063b4d17850146100f8578063cd02929f146101e4578063d6048df514610204578063e834a8341461022e57600080fd5b80633ad8fe551461009d578063651480b9146100bf5780636f3f44cf146100d25780639a37e681146100e5575b600080fd5b3480156100a957600080fd5b506100bd6100b8366004610a46565b61024d565b005b6100bd6100cd3660046109f2565b610444565b6100bd6100e0366004610ac5565b6104d4565b6100bd6100f3366004610a89565b6106fb565b34801561010457600080fd5b5061018d610113366004610a46565b6001602081815260009485526040808620825293855283852090529083529120805491810154600282015460038301546004840154600590940154600160a060020a038087169674010000000000000000000000000000000000000000900460070b95938116939216919060ff8082169161010090041688565b60408051600160a060020a03998a16815260079890980b602089015287019590955292861660608601529416608084015260a083019390935291151560c082015290151560e0820152610100015b60405180910390f35b3480156101f057600080fd5b506100bd6101ff366004610a46565b6107d8565b34801561021057600080fd5b5060005461021e9060ff1681565b60405190151581526020016101db565b34801561023a57600080fd5b5060005461021e90610100900460ff1681565b600160a060020a038084166000908152600160208181526040808420600788810b900b8552825280842094861684529390529190206005810154909160ff90911615151461030b5760405160e560020a62461bcd02815260206004820152602860248201527f436c61696d2041756374696f6e203a2041756374696f6e206e6f74207365747460448201527f6c6564207965742100000000000000000000000000000000000000000000000060648201526084015b60405180910390fd5b6005810154610100900460ff161561038e5760405160e560020a62461bcd02815260206004820152602660248201527f436c61696d2041756374696f6e203a20546f6b656e20616c726561647920636c60448201527f61696d65642100000000000000000000000000000000000000000000000000006064820152608401610302565b6003810154600160a060020a031633146104135760405160e560020a62461bcd02815260206004820152602e60248201527f436c61696d2041756374696f6e203a204f6e6c792061756374696f6e2077696d60448201527f6d65722063616e20636c61696d210000000000000000000000000000000000006064820152608401610302565b61041f84303386610444565b600501805461010061ff00199182168117909255600080549091169091179055505050565b6000610452858585856108ae565b9050601681146104cd5760405160e560020a62461bcd02815260206004820152602360248201527f4661696c656420746f20637265617465206e6f6e2d66756e6769626c6520746f60448201527f6b656e00000000000000000000000000000000000000000000000000000000006064820152608401610302565b5050505050565b600160a060020a038085166000908152600160208181526040808420600789810b900b855282528084209486168452939052919020908101548310156105855760405160e560020a62461bcd02815260206004820152602a60248201527f506c61636520426964203a205072696365204c657373205468616e207468652060448201527f62617365207072696365000000000000000000000000000000000000000000006064820152608401610302565b806004015483116106015760405160e560020a62461bcd02815260206004820152603a60248201527f506c61636520426964203a20546865207072696365206973206c65737320746860448201527f656e207468652070726576696f75732062696420616d6f756e740000000000006064820152608401610302565b8234146106795760405160e560020a62461bcd02815260206004820152603360248201527f506c616365204269643a20416d6f756e7420726563656976656420616e64207060448201527f726963652073686f756c642062652073616d65000000000000000000000000006064820152608401610302565b6003810154600160a060020a0316156106ce5760038101546004820154604051600160a060020a039092169181156108fc0291906000818181858888f193505050501580156106cc573d6000803e3d6000fd5b505b600481019290925550600301805473ffffffffffffffffffffffffffffffffffffffff1916331790555050565b600081116107745760405160e560020a62461bcd02815260206004820152602160248201527f4372656174652041756374696f6e203a205a65726f206261736520707269636560448201527f2e000000000000000000000000000000000000000000000000000000000000006064820152608401610302565b600160a060020a039092166000908152600160208181526040808420600795860b90950b84529381528383203380855291529290912060028101805473ffffffffffffffffffffffffffffffffffffffff1916909317909255600482018390550155565b600160a060020a038381166000908152600160209081526040808320600787810b900b84528252808320858516845290915290206002810154909116331461088b5760405160e560020a62461bcd02815260206004820152603260248201527f536574746c652041756374696f6e203a205265737472696374656420746f206160448201527f756374696f6e6572206f722061646d696e2100000000000000000000000000006064820152608401610302565b6005018054600160ff199182168117909255600080549091169091179055505050565b60408051600160a060020a038681166024830152858116604483015284166064820152600783900b6084808301919091528251808303909101815260a490910182526020810180517bffffffffffffffffffffffffffffffffffffffffffffffffffffffff167f5cfc9011000000000000000000000000000000000000000000000000000000001790529051600091829182916101679161094f9190610b31565b6000604051808303816000865af19150503d806000811461098c576040519150601f19603f3d011682016040523d82523d6000602084013e610991565b606091505b5091509150816109a25760156109b6565b808060200190518101906109b69190610b07565b60030b979650505050505050565b8035600160a060020a03811681146109db57600080fd5b919050565b8035600781900b81146109db57600080fd5b60008060008060808587031215610a0857600080fd5b610a11856109c4565b9350610a1f602086016109c4565b9250610a2d604086016109c4565b9150610a3b606086016109e0565b905092959194509250565b600080600060608486031215610a5b57600080fd5b610a64846109c4565b9250610a72602085016109e0565b9150610a80604085016109c4565b90509250925092565b600080600060608486031215610a9e57600080fd5b610aa7846109c4565b9250610ab5602085016109e0565b9150604084013590509250925092565b60008060008060808587031215610adb57600080fd5b610ae4856109c4565b9350610af2602086016109e0565b925060408501359150610a3b606086016109c4565b600060208284031215610b1957600080fd5b81518060030b8114610b2a57600080fd5b9392505050565b6000825160005b81811015610b525760208186018101518583015201610b38565b81811115610b61576000828501525b50919091019291505056fea26469706673582212203c072ef1d2558d98e09e6fdf46588b53b3b4eed431e6fd3d32712b8e5f3b459864736f6c63430008060033",
  "immutableReferences": {},
  "source": "// SPDX-License-Identifier: GPL-3.0\npragma solidity >=0.6.0 <0.9.0;\n \nimport './HederaResponseCodes.sol';\nimport './IHederaTokenService.sol';\nimport './HederaTokenService.sol';\nimport './ExpiryHelper.sol';\n \ncontract AuctionContract is ExpiryHelper{\n\n  /**\n   * @notice NFT metadata along with bid details\n  */\n  struct Auction {\n    address tokenId;\n    int64 serialNumber;\n    uint256 basePrice;\n    address auctioner;\n    address currentBidder;\n    uint256 bidAmount;\n    bool readyToClaim;\n    bool claimed;\n  }  \n\n   bool public readyToClaim;\n   bool public claimed;\n   mapping(address => mapping(int64 => mapping(address => Auction))) public mapAuction;\n    /**\n   * @notice createAuction\n   * Function to start auction with first bid.\n   * Validate signatures, stores NFT data and add first bid as well\n   */\n \n   function createAuction(address tokenId, int64 serialNumber, uint256 basePrice) external payable {    \n    require(basePrice > 0, 'Create Auction : Zero base price.');\n    Auction storage NftOnAuction = mapAuction[tokenId][serialNumber][msg.sender];\n    NftOnAuction.auctioner = msg.sender;\n    NftOnAuction.bidAmount = basePrice;\n    NftOnAuction.basePrice = basePrice;\n  }\n\n  /**\n   * @notice placeBid\n   * Function to place the bid on the nfts using native cryptocurrency and multiple erc20 token\n   * @param _tokenId NFT unique ID\n   * @param _price bid price   \n   * @param _auctioner Seller address\n   */\n  function placeBid(\n    address _tokenId,\n    int64 _serialNumber,\n    uint256 _price,\n    address _auctioner\n  ) public payable {\n\n    Auction storage NftOnAuction = mapAuction [_tokenId][_serialNumber][_auctioner];  \n    require(_price >= NftOnAuction.basePrice, 'Place Bid : Price Less Than the base price');\n    require(_price > NftOnAuction.bidAmount, 'Place Bid : The price is less then the previous bid amount');\n    require(msg.value == _price, 'Place Bid: Amount received and price should be same');\n    // require(msg.value > NftOnAuction.bidAmount, 'Place Bid: Amount received should be grather than the current bid');\n    if (NftOnAuction.currentBidder != address(0)) {\n      payable(NftOnAuction.currentBidder).transfer(NftOnAuction.bidAmount);\n    }\n    NftOnAuction.bidAmount = _price;\n    NftOnAuction.currentBidder = msg.sender;\n  }\n\n  function settleAuction(\n    address _tokenId,\n    int64 _serialNumber,\n    address _auctioner\n  ) public {\n    Auction storage NftOnAuction = mapAuction[_tokenId][_serialNumber][_auctioner];\n    require(msg.sender == NftOnAuction.auctioner, 'Settle Auction : Restricted to auctioner or admin!');\n    NftOnAuction.readyToClaim = true;\n    readyToClaim = true;\n  }\n\n  function claimAuction(\n    address _tokenId,\n    int64 _serialNumber,\n    address _auctioner\n  ) public {\n    Auction storage NftOnAuction = mapAuction[_tokenId][_serialNumber][_auctioner];\n    require(NftOnAuction.readyToClaim == true, 'Claim Auction : Auction not settled yet!');\n    require(NftOnAuction.claimed == false, 'Claim Auction : Token already claimed!');\n    require(msg.sender == NftOnAuction.currentBidder, 'Claim Auction : Only auction wimmer can claim!');\n    transferNonFungibleToken(_tokenId, address(this), msg.sender,  _serialNumber);\n    NftOnAuction.claimed = true;\n    claimed = true;\n  }\n\n  function transferNonFungibleToken(\n    address token,\n    address sender,\n    address receiver,\n    int64 serialNumber\n  ) public payable {\n \n    (int responseCode) = \n    HederaTokenService.transferNFT(token, sender, receiver, serialNumber);\n\n    if(responseCode != HederaResponseCodes.SUCCESS){\n        revert(\"Failed to create non-fungible token\");\n    }\n  }\n\n}",
  "sourcePath": "C:\\ACCUBITS\\PROJECT\\HEDERA_NFT\\contracts\\AuctionContract.sol",
  "compiler": {
    "name": "solc",
    "version": "0.8.6+commit.11564f7e.Emscripten.clang"
  },
  "schemaVersion": "3.4.3",
  "updatedAt": "2022-11-17T05:48:25.155Z",
  "devdoc": {
    "kind": "dev",
    "methods": {
      "placeBid(address,int64,uint256,address)": {
        "params": {
          "_auctioner": "Seller address",
          "_price": "bid price   ",
          "_tokenId": "NFT unique ID"
        }
      }
    },
    "version": 1
  },
  "userdoc": {
    "kind": "user",
    "methods": {
      "createAuction(address,int64,uint256)": {
        "notice": "createAuction Function to start auction with first bid. Validate signatures, stores NFT data and add first bid as well"
      },
      "placeBid(address,int64,uint256,address)": {
        "notice": "placeBid Function to place the bid on the nfts using native cryptocurrency and multiple erc20 token"
      }
    },
    "version": 1
  }
}