{
  "contractName": "AuctionContract",
  "abi": [
    {
      "inputs": [],
      "name": "bidWinner",
      "outputs": [
        {
          "internalType": "address",
          "name": "",
          "type": "address"
        }
      ],
      "stateMutability": "view",
      "type": "function"
    },
    {
      "inputs": [
        {
          "internalType": "address",
          "name": "",
          "type": "address"
        },
        {
          "internalType": "int64",
          "name": "",
          "type": "int64"
        },
        {
          "internalType": "address",
          "name": "",
          "type": "address"
        }
      ],
      "name": "mapAuction",
      "outputs": [
        {
          "internalType": "address",
          "name": "tokenId",
          "type": "address"
        },
        {
          "internalType": "int64",
          "name": "serialNumber",
          "type": "int64"
        },
        {
          "internalType": "uint256",
          "name": "basePrice",
          "type": "uint256"
        },
        {
          "internalType": "address",
          "name": "auctioner",
          "type": "address"
        },
        {
          "internalType": "address",
          "name": "admin",
          "type": "address"
        },
        {
          "internalType": "address",
          "name": "currentBidder",
          "type": "address"
        },
        {
          "internalType": "uint256",
          "name": "bidAmount",
          "type": "uint256"
        }
      ],
      "stateMutability": "view",
      "type": "function"
    },
    {
      "inputs": [
        {
          "internalType": "address",
          "name": "tokenId",
          "type": "address"
        },
        {
          "internalType": "int64",
          "name": "serialNumber",
          "type": "int64"
        },
        {
          "internalType": "uint256",
          "name": "basePrice",
          "type": "uint256"
        },
        {
          "internalType": "address",
          "name": "adminAcc",
          "type": "address"
        }
      ],
      "name": "createAuction",
      "outputs": [],
      "stateMutability": "payable",
      "type": "function"
    },
    {
      "inputs": [
        {
          "internalType": "address",
          "name": "_tokenId",
          "type": "address"
        },
        {
          "internalType": "int64",
          "name": "_serialNumber",
          "type": "int64"
        },
        {
          "internalType": "uint256",
          "name": "_price",
          "type": "uint256"
        },
        {
          "internalType": "address",
          "name": "_auctioner",
          "type": "address"
        }
      ],
      "name": "placeBid",
      "outputs": [],
      "stateMutability": "payable",
      "type": "function"
    },
    {
      "inputs": [
        {
          "internalType": "address",
          "name": "_tokenId",
          "type": "address"
        },
        {
          "internalType": "int64",
          "name": "_serialNumber",
          "type": "int64"
        },
        {
          "internalType": "address",
          "name": "_auctioner",
          "type": "address"
        }
      ],
      "name": "settleAuction",
      "outputs": [],
      "stateMutability": "nonpayable",
      "type": "function"
    },
    {
      "inputs": [
        {
          "internalType": "address",
          "name": "token",
          "type": "address"
        },
        {
          "internalType": "address",
          "name": "sender",
          "type": "address"
        },
        {
          "internalType": "address",
          "name": "receiver",
          "type": "address"
        },
        {
          "internalType": "int64",
          "name": "serialNumber",
          "type": "int64"
        }
      ],
      "name": "transferNonFungibleToken",
      "outputs": [],
      "stateMutability": "nonpayable",
      "type": "function"
    }
  ],
  "bytecode": "0x608060405234801561001057600080fd5b506109e4806100206000396000f3fe608060405260043610610071577c01000000000000000000000000000000000000000000000000000000006000350463651480b981146100765780636f3f44cf1461009857806380b153f1146100ab578063b4d17850146100e8578063b8c3b4fb146101bc578063cd02929f146101cf575b600080fd5b34801561008257600080fd5b50610096610091366004610870565b6101ef565b005b6100966100a6366004610907565b610284565b3480156100b757600080fd5b506000546100cb90600160a060020a031681565b604051600160a060020a0390911681526020015b60405180910390f35b3480156100f457600080fd5b506101736101033660046108c4565b6001602081815260009485526040808620825293855283852090529083529120805491810154600282015460038301546004840154600590940154600160a060020a038087169674010000000000000000000000000000000000000000900460070b959381169392811692169087565b60408051600160a060020a03988916815260079790970b602088015286019490945291851660608501528416608084015290921660a082015260c081019190915260e0016100df565b6100966101ca366004610907565b6104bb565b3480156101db57600080fd5b506100966101ea3660046108c4565b6105ba565b60006101fd8585858561072c565b90506016811461027d5760405160e560020a62461bcd02815260206004820152602360248201527f4661696c656420746f20637265617465206e6f6e2d66756e6769626c6520746f60448201527f6b656e000000000000000000000000000000000000000000000000000000000060648201526084015b60405180910390fd5b5050505050565b600160a060020a038085166000908152600160208181526040808420600789810b900b855282528084209486168452939052919020908101548310156103355760405160e560020a62461bcd02815260206004820152602a60248201527f506c61636520426964203a205072696365204c657373205468616e207468652060448201527f62617365207072696365000000000000000000000000000000000000000000006064820152608401610274565b806005015483116103b15760405160e560020a62461bcd02815260206004820152603a60248201527f506c61636520426964203a20546865207072696365206973206c65737320746860448201527f656e207468652070726576696f75732062696420616d6f756e740000000000006064820152608401610274565b8234146104295760405160e560020a62461bcd02815260206004820152603360248201527f506c616365204269643a20416d6f756e7420726563656976656420616e64207060448201527f726963652073686f756c642062652073616d65000000000000000000000000006064820152608401610274565b6004810154600160a060020a03161561047e5760048101546005820154604051600160a060020a039092169181156108fc0291906000818181858888f1935050505015801561047c573d6000803e3d6000fd5b505b60058101929092555060040180543373ffffffffffffffffffffffffffffffffffffffff1991821681179092556000805490911690911790555050565b600082116105345760405160e560020a62461bcd02815260206004820152602160248201527f4372656174652041756374696f6e203a205a65726f206261736520707269636560448201527f2e000000000000000000000000000000000000000000000000000000000000006064820152608401610274565b610540843383866101ef565b600160a060020a039384166000908152600160208181526040808420600797880b90970b84529581528583203380855291529490912060028101805473ffffffffffffffffffffffffffffffffffffffff199081169096179055600581018490559081019290925560039091018054919093169116179055565b600160a060020a038381166000908152600160209081526040808320600787810b900b84528252808320858516845290915290206003810154909116331461066d5760405160e560020a62461bcd02815260206004820152603260248201527f536574746c652041756374696f6e203a205265737472696374656420746f206160448201527f756374696f6e6572206f722061646d696e2100000000000000000000000000006064820152608401610274565b60048101546106899085903390600160a060020a0316866101ef565b50600160a060020a039283166000908152600160208181526040808420600796870b90960b84529481528483209390951682529190935290822080547fffffffff0000000000000000000000000000000000000000000000000000000016815590810182905560028101805473ffffffffffffffffffffffffffffffffffffffff1990811690915560038201805482169055600482018054909116905560050155565b60408051600160a060020a038681166024830152858116604483015284166064820152600783900b6084808301919091528251808303909101815260a490910182526020810180517bffffffffffffffffffffffffffffffffffffffffffffffffffffffff167f5cfc901100000000000000000000000000000000000000000000000000000000179052905160009182918291610167916107cd9190610973565b6000604051808303816000865af19150503d806000811461080a576040519150601f19603f3d011682016040523d82523d6000602084013e61080f565b606091505b509150915081610820576015610834565b808060200190518101906108349190610949565b60030b979650505050505050565b8035600160a060020a038116811461085957600080fd5b919050565b8035600781900b811461085957600080fd5b6000806000806080858703121561088657600080fd5b61088f85610842565b935061089d60208601610842565b92506108ab60408601610842565b91506108b96060860161085e565b905092959194509250565b6000806000606084860312156108d957600080fd5b6108e284610842565b92506108f06020850161085e565b91506108fe60408501610842565b90509250925092565b6000806000806080858703121561091d57600080fd5b61092685610842565b93506109346020860161085e565b9250604085013591506108b960608601610842565b60006020828403121561095b57600080fd5b81518060030b811461096c57600080fd5b9392505050565b6000825160005b81811015610994576020818601810151858301520161097a565b818111156109a3576000828501525b50919091019291505056fea26469706673582212203eb4b9ec50a41e841ec0944e80d4c401c16d3d62fcaea1605374468b910c560564736f6c63430008060033",
  "immutableReferences": {},
  "source": "// SPDX-License-Identifier: GPL-3.0\npragma solidity >=0.6.0 <0.9.0;\n \nimport './HederaResponseCodes.sol';\nimport './IHederaTokenService.sol';\nimport './HederaTokenService.sol';\nimport './ExpiryHelper.sol';\n \ncontract AuctionContract is ExpiryHelper {\n\n  /**\n   * @notice NFT metadata along with bid details\n  */\n  struct Auction {\n    address tokenId;\n    int64 serialNumber;\n    uint256 basePrice;\n    address auctioner;\n    address admin;\n    address currentBidder;\n    uint256 bidAmount;\n  }  \n  address public bidWinner;\n\n   mapping(address => mapping(int64 => mapping(address => Auction))) public mapAuction;\n    /**\n   * @notice createAuction\n   * Function to start auction with first bid.\n   * Validate signatures, stores NFT data and add first bid as well\n   */\n  // token owner is the caller\n   function createAuction(address tokenId, int64 serialNumber, uint256 basePrice, address adminAcc) external payable {    \n    require(basePrice > 0, 'Create Auction : Zero base price.');\n    transferNonFungibleToken(tokenId, msg.sender, adminAcc, serialNumber);\n    Auction storage NftOnAuction = mapAuction[tokenId][serialNumber][msg.sender];\n    NftOnAuction.auctioner = msg.sender;\n    NftOnAuction.bidAmount = basePrice;\n    NftOnAuction.basePrice = basePrice;\n    NftOnAuction.admin = adminAcc;\n  }\n\n  /**\n   * @notice placeBid\n   * Function to place the bid on the nfts using native cryptocurrency and multiple erc20 token\n   * @param _tokenId NFT unique ID\n   * @param _price bid price   \n   * @param _auctioner Seller address\n   */\n   // anyone can call\n  function placeBid(\n    address _tokenId,\n    int64 _serialNumber,\n    uint256 _price,\n    address _auctioner\n  ) public payable {\n\n    Auction storage NftOnAuction = mapAuction [_tokenId][_serialNumber][_auctioner];  \n    require(_price >= NftOnAuction.basePrice, 'Place Bid : Price Less Than the base price');\n    require(_price > NftOnAuction.bidAmount, 'Place Bid : The price is less then the previous bid amount');\n    require(msg.value == _price, 'Place Bid: Amount received and price should be same');\n    if (NftOnAuction.currentBidder != address(0)) {\n      payable(NftOnAuction.currentBidder).transfer(NftOnAuction.bidAmount);\n    }\n    NftOnAuction.bidAmount = _price;\n    NftOnAuction.currentBidder = msg.sender; \n    bidWinner = msg.sender;\n  }\n\n  // admin account is the caller, allowance set to adminacc, bidwinner(NftOnAuction.currentBidder)\n  function settleAuction(\n    address _tokenId,\n    int64 _serialNumber,\n    address _auctioner\n  ) public {\n    Auction storage NftOnAuction = mapAuction[_tokenId][_serialNumber][_auctioner];\n    require(msg.sender == NftOnAuction.admin, 'Settle Auction : Restricted to auctioner or admin!');    \n    transferNonFungibleToken(_tokenId, msg.sender, NftOnAuction.currentBidder, _serialNumber);\n    delete mapAuction[_tokenId][_serialNumber][_auctioner];\n  }\n\n  function transferNonFungibleToken(\n    address token,\n    address sender,\n    address receiver,\n    int64 serialNumber\n  ) public {\n \n    (int responseCode) = \n    HederaTokenService.transferNFT(token, sender, receiver, serialNumber);\n\n    if(responseCode != HederaResponseCodes.SUCCESS){\n        revert(\"Failed to create non-fungible token\");\n    }\n  }\n}",
  "sourcePath": "C:\\ACCUBITS\\PROJECT\\HEDERA_NFT\\contracts\\AuctionContract.sol",
  "compiler": {
    "name": "solc",
    "version": "0.8.6+commit.11564f7e.Emscripten.clang"
  },
  "schemaVersion": "3.4.3",
  "updatedAt": "2022-12-05T08:56:19.675Z",
  "devdoc": {
    "kind": "dev",
    "methods": {
      "placeBid(address,int64,uint256,address)": {
        "params": {
          "_auctioner": "Seller address",
          "_price": "bid price   ",
          "_tokenId": "NFT unique ID"
        }
      }
    },
    "version": 1
  },
  "userdoc": {
    "kind": "user",
    "methods": {
      "createAuction(address,int64,uint256,address)": {
        "notice": "createAuction Function to start auction with first bid. Validate signatures, stores NFT data and add first bid as well"
      },
      "placeBid(address,int64,uint256,address)": {
        "notice": "placeBid Function to place the bid on the nfts using native cryptocurrency and multiple erc20 token"
      }
    },
    "version": 1
  }
}