{
  "contractName": "SMS",
  "abi": [
    {
      "inputs": [],
      "stateMutability": "nonpayable",
      "type": "constructor"
    },
    {
      "anonymous": false,
      "inputs": [
        {
          "indexed": true,
          "internalType": "address",
          "name": "previousOwner",
          "type": "address"
        },
        {
          "indexed": true,
          "internalType": "address",
          "name": "newOwner",
          "type": "address"
        }
      ],
      "name": "OwnershipTransferred",
      "type": "event"
    },
    {
      "anonymous": false,
      "inputs": [
        {
          "indexed": false,
          "internalType": "bytes32",
          "name": "StudentId",
          "type": "bytes32"
        },
        {
          "indexed": false,
          "internalType": "bytes32",
          "name": "StudentName",
          "type": "bytes32"
        },
        {
          "indexed": false,
          "internalType": "bytes32",
          "name": "StudentDept",
          "type": "bytes32"
        },
        {
          "indexed": false,
          "internalType": "bytes32",
          "name": "StudentAge",
          "type": "bytes32"
        },
        {
          "indexed": false,
          "internalType": "uint64",
          "name": "timestamp",
          "type": "uint64"
        }
      ],
      "name": "StudentDetailsAdded",
      "type": "event"
    },
    {
      "inputs": [
        {
          "internalType": "bytes32",
          "name": "",
          "type": "bytes32"
        }
      ],
      "name": "Student",
      "outputs": [
        {
          "internalType": "bytes32",
          "name": "StudentName",
          "type": "bytes32"
        },
        {
          "internalType": "bytes32",
          "name": "StudentDept",
          "type": "bytes32"
        },
        {
          "internalType": "bytes32",
          "name": "StudentAge",
          "type": "bytes32"
        },
        {
          "internalType": "uint64",
          "name": "timeStamp",
          "type": "uint64"
        }
      ],
      "stateMutability": "view",
      "type": "function"
    },
    {
      "inputs": [],
      "name": "owner",
      "outputs": [
        {
          "internalType": "address",
          "name": "",
          "type": "address"
        }
      ],
      "stateMutability": "view",
      "type": "function"
    },
    {
      "inputs": [],
      "name": "renounceOwnership",
      "outputs": [],
      "stateMutability": "nonpayable",
      "type": "function"
    },
    {
      "inputs": [
        {
          "internalType": "address",
          "name": "newOwner",
          "type": "address"
        }
      ],
      "name": "transferOwnership",
      "outputs": [],
      "stateMutability": "nonpayable",
      "type": "function"
    },
    {
      "inputs": [
        {
          "internalType": "bytes32",
          "name": "StudentId",
          "type": "bytes32"
        },
        {
          "internalType": "bytes32",
          "name": "StudentName",
          "type": "bytes32"
        },
        {
          "internalType": "bytes32",
          "name": "StudentDept",
          "type": "bytes32"
        },
        {
          "internalType": "bytes32",
          "name": "StudentAge",
          "type": "bytes32"
        },
        {
          "internalType": "uint64",
          "name": "timeStamp",
          "type": "uint64"
        }
      ],
      "name": "addStudentDetails",
      "outputs": [],
      "stateMutability": "nonpayable",
      "type": "function"
    }
  ],
  "bytecode": "0x608060405234801561001057600080fd5b50610033610025640100000000610038810204565b64010000000061003c810204565b61008c565b3390565b60008054600160a060020a03838116600160a060020a0319831681178455604051919092169283917f8be0079c531659141344cd1fd0a4f28419497f9722a3daafe3b4186f6b6457e09190a35050565b61056e8061009b6000396000f3fe608060405234801561001057600080fd5b5060043610610073577c010000000000000000000000000000000000000000000000000000000060003504630b8d43ce8114610078578063715018a6146100e75780638da5cb5b146100f1578063bc646f1314610119578063f2fde38b1461012c575b600080fd5b6100b86100863660046104c5565b6001602081905260009182526040909120805491810154600282015460039092015490919067ffffffffffffffff1684565b6040805194855260208501939093529183015267ffffffffffffffff1660608201526080015b60405180910390f35b6100ef61013f565b005b60005460405173ffffffffffffffffffffffffffffffffffffffff90911681526020016100de565b6100ef6101273660046104de565b610153565b6100ef61013a366004610488565b6102e6565b61014761039d565b610151600061041e565b565b61015b61039d565b600085815260016020526040902060030154859067ffffffffffffffff161561020a576040517f08c379a0000000000000000000000000000000000000000000000000000000008152602060048201526024808201527f48454445524120534d533a2053747564656e74496420616c726561647920457860448201527f697374730000000000000000000000000000000000000000000000000000000060648201526084015b60405180910390fd5b60408051608081018252868152602080820187815282840187815267ffffffffffffffff8088166060860190815260008d81526001958690528790209551865592519385019390935551600284015551600390920180549290911667ffffffffffffffff19909216919091179055517f66cbb2f1b69bf485c933bf1e58813b27c4ba769380d845bf352e744385d18fcb906102d6908890889088908890889094855260208501939093526040840191909152606083015267ffffffffffffffff16608082015260a00190565b60405180910390a1505050505050565b6102ee61039d565b73ffffffffffffffffffffffffffffffffffffffff8116610391576040517f08c379a000000000000000000000000000000000000000000000000000000000815260206004820152602660248201527f4f776e61626c653a206e6577206f776e657220697320746865207a65726f206160448201527f64647265737300000000000000000000000000000000000000000000000000006064820152608401610201565b61039a8161041e565b50565b60005473ffffffffffffffffffffffffffffffffffffffff163314610151576040517f08c379a000000000000000000000000000000000000000000000000000000000815260206004820181905260248201527f4f776e61626c653a2063616c6c6572206973206e6f7420746865206f776e65726044820152606401610201565b6000805473ffffffffffffffffffffffffffffffffffffffff83811673ffffffffffffffffffffffffffffffffffffffff19831681178455604051919092169283917f8be0079c531659141344cd1fd0a4f28419497f9722a3daafe3b4186f6b6457e09190a35050565b60006020828403121561049a57600080fd5b813573ffffffffffffffffffffffffffffffffffffffff811681146104be57600080fd5b9392505050565b6000602082840312156104d757600080fd5b5035919050565b600080600080600060a086880312156104f657600080fd5b85359450602086013593506040860135925060608601359150608086013567ffffffffffffffff8116811461052a57600080fd5b80915050929550929590935056fea264697066735822122055713343a436d2ea876c685e0c3a639e522aab1a49f95cd25ef04a19a83ab72d64736f6c63430008060033",
  "immutableReferences": {},
  "source": "// SPDX-License-Identifier: MIT\n\nimport \"@openzeppelin/contracts/access/Ownable.sol\";\npragma solidity 0.8.6;\n\n/// @title Hedera Student Management System\n/// @notice This contract manages the Name of the Student along with the time of Student signature.\ncontract SMS is Ownable {\n    struct StudentDetails {\n        bytes32 StudentName;\n        bytes32 StudentDept;\n        bytes32 StudentAge;\n        uint64 timeStamp;\n    }\n\n    mapping(bytes32 => StudentDetails) public Student;\n\n    constructor() Ownable(){}\n\n\n    modifier isStudentIdExist(bytes32 StudentId) {\n        require(\n            Student[StudentId].timeStamp == 0,\n            \"HEDERA SMS: StudentId already Exists\"\n        );\n        _;\n    }\n    event StudentDetailsAdded(\n        bytes32 StudentId,\n        bytes32 StudentName,\n        bytes32 StudentDept,\n        bytes32 StudentAge,\n        uint64 timestamp\n    );\n\n    /// @notice Function to add Student details to the Student id\n    /// @param StudentId unique ID of the Student\n    /// @param StudentName Name of the Student to be added to the StudentID\n    /// @param timeStamp ,Timestamp of the time when the Student is signed.\n    function addStudentDetails(\n        bytes32  StudentId,\n        bytes32 StudentName,\n        bytes32 StudentDept,\n        bytes32 StudentAge,\n        uint64 timeStamp\n    ) external onlyOwner isStudentIdExist(StudentId) {\n        Student[StudentId] = StudentDetails(StudentName, StudentDept, StudentAge, timeStamp);\n        emit StudentDetailsAdded(StudentId, StudentName, StudentDept, StudentAge, timeStamp);\n    }\n\n}\n",
  "sourcePath": "C:\\ACCUBITS\\STUDY\\HEDERA\\HED-JS-SDK\\contracts\\SMS.sol",
  "compiler": {
    "name": "solc",
    "version": "0.8.6+commit.11564f7e.Emscripten.clang"
  },
  "schemaVersion": "3.4.3",
  "updatedAt": "2022-10-12T06:26:27.607Z",
  "devdoc": {
    "kind": "dev",
    "methods": {
      "addStudentDetails(bytes32,bytes32,bytes32,bytes32,uint64)": {
        "params": {
          "StudentId": "unique ID of the Student",
          "StudentName": "Name of the Student to be added to the StudentID",
          "timeStamp": ",Timestamp of the time when the Student is signed."
        }
      },
      "owner()": {
        "details": "Returns the address of the current owner."
      },
      "renounceOwnership()": {
        "details": "Leaves the contract without owner. It will not be possible to call `onlyOwner` functions anymore. Can only be called by the current owner. NOTE: Renouncing ownership will leave the contract without an owner, thereby removing any functionality that is only available to the owner."
      },
      "transferOwnership(address)": {
        "details": "Transfers ownership of the contract to a new account (`newOwner`). Can only be called by the current owner."
      }
    },
    "title": "Hedera Student Management System",
    "version": 1
  },
  "userdoc": {
    "kind": "user",
    "methods": {
      "addStudentDetails(bytes32,bytes32,bytes32,bytes32,uint64)": {
        "notice": "Function to add Student details to the Student id"
      }
    },
    "notice": "This contract manages the Name of the Student along with the time of Student signature.",
    "version": 1
  }
}