{
  "contractName": "TokenCreator",
  "abi": [
    {
      "inputs": [
        {
          "internalType": "string",
          "name": "name",
          "type": "string"
        },
        {
          "internalType": "string",
          "name": "symbol",
          "type": "string"
        },
        {
          "internalType": "string",
          "name": "memo",
          "type": "string"
        },
        {
          "internalType": "uint32",
          "name": "maxSupply",
          "type": "uint32"
        },
        {
          "internalType": "uint32",
          "name": "autoRenewPeriod",
          "type": "uint32"
        }
      ],
      "name": "createNonFungible",
      "outputs": [
        {
          "internalType": "address",
          "name": "",
          "type": "address"
        },
        {
          "components": [
            {
              "internalType": "uint256",
              "name": "keyType",
              "type": "uint256"
            },
            {
              "components": [
                {
                  "internalType": "bool",
                  "name": "inheritAccountKey",
                  "type": "bool"
                },
                {
                  "internalType": "address",
                  "name": "contractId",
                  "type": "address"
                },
                {
                  "internalType": "bytes",
                  "name": "ed25519",
                  "type": "bytes"
                },
                {
                  "internalType": "bytes",
                  "name": "ECDSA_secp256k1",
                  "type": "bytes"
                },
                {
                  "internalType": "address",
                  "name": "delegatableContractId",
                  "type": "address"
                }
              ],
              "internalType": "struct IHederaTokenService.KeyValue",
              "name": "key",
              "type": "tuple"
            }
          ],
          "internalType": "struct IHederaTokenService.TokenKey[]",
          "name": "",
          "type": "tuple[]"
        }
      ],
      "stateMutability": "payable",
      "type": "function"
    },
    {
      "inputs": [
        {
          "internalType": "address",
          "name": "token",
          "type": "address"
        },
        {
          "internalType": "uint64",
          "name": "amount",
          "type": "uint64"
        },
        {
          "internalType": "bytes[]",
          "name": "metadata",
          "type": "bytes[]"
        }
      ],
      "name": "mintNonFungibleToken",
      "outputs": [
        {
          "internalType": "int256",
          "name": "responseCode",
          "type": "int256"
        },
        {
          "internalType": "uint64",
          "name": "newTotalSupply",
          "type": "uint64"
        },
        {
          "internalType": "int64[]",
          "name": "serialNumbers",
          "type": "int64[]"
        }
      ],
      "stateMutability": "nonpayable",
      "type": "function"
    },
    {
      "inputs": [
        {
          "internalType": "address",
          "name": "token",
          "type": "address"
        },
        {
          "internalType": "address",
          "name": "sender",
          "type": "address"
        },
        {
          "internalType": "address",
          "name": "receiver",
          "type": "address"
        },
        {
          "internalType": "int64",
          "name": "serialNumber",
          "type": "int64"
        }
      ],
      "name": "transferNonFungibleToken",
      "outputs": [],
      "stateMutability": "payable",
      "type": "function"
    },
    {
      "inputs": [
        {
          "internalType": "address",
          "name": "account",
          "type": "address"
        },
        {
          "internalType": "address",
          "name": "token",
          "type": "address"
        }
      ],
      "name": "associateNonFungibleToken",
      "outputs": [],
      "stateMutability": "nonpayable",
      "type": "function"
    }
  ],
  "bytecode": "0x608060405234801561001057600080fd5b50611183806100206000396000f3fe6080604052600436106100425760e060020a6000350463180e5c0d811461004757806331733e6d14610069578063651480b9146100a157806391ef6f01146100b4575b600080fd5b34801561005357600080fd5b50610067610062366004610965565b6100d5565b005b34801561007557600080fd5b506100896100843660046109fa565b61012b565b60405161009893929190610e5b565b60405180910390f35b6100676100af36600461099e565b610158565b6100c76100c2366004610bf9565b6101a9565b604051610098929190610dae565b60006100e183836102e4565b905060168114610126576040517f08c379a000000000000000000000000000000000000000000000000000000000815260040161011d90610ebd565b60405180910390fd5b505050565b600080606061013b8686866103d1565b919450925090506016831461014f57600080fd5b93509350939050565b6000610166858585856104e7565b9050601681146101a2576040517f08c379a000000000000000000000000000000000000000000000000000000000815260040161011d90610ebd565b5050505050565b6040805160018082528183019092526000916060918391816020015b6101cd6107e6565b8152602001906001900390816101c55790505090506101ef60106002306105e8565b81600081518110610202576102026110b2565b6020026020010181905250610215610805565b888152602081018890526060810187905230604082018190526001608083015260e0820183905263ffffffff871660a0830152600060c083015261028390866040805160608101825260008152600160a060020a0393909316602084015263ffffffff919091169082015290565b61010082015260008061029583610625565b9092509050601682146102d4576040517f08c379a000000000000000000000000000000000000000000000000000000000815260040161011d90610ebd565b9a92995091975050505050505050565b60408051600160a060020a03848116602483015283166044808301919091528251808303909101815260649091018252602081018051600160e060020a03167f49146bde000000000000000000000000000000000000000000000000000000001790529051600091829182916101679161035e9190610d92565b6000604051808303816000865af19150503d806000811461039b576040519150601f19603f3d011682016040523d82523d6000602084013e6103a0565b606091505b5091509150816103b15760156103c5565b808060200190518101906103c59190610aee565b60030b95945050505050565b6000806060600080610167600160a060020a031663278e0b8860e060020a0289898960405160240161040593929190610dd8565b60408051601f19818403018152918152602082018051600160e060020a03167bffffffffffffffffffffffffffffffffffffffffffffffffffffffff199094169390931790925290516104589190610d92565b6000604051808303816000865af19150503d8060008114610495576040519150601f19603f3d011682016040523d82523d6000602084013e61049a565b606091505b5091509150816104bd5760408051600080825260208201909252601591906104d1565b808060200190518101906104d19190610b35565b60039290920b9a90995090975095505050505050565b60408051600160a060020a038681166024830152858116604483015284166064820152600783900b6084808301919091528251808303909101815260a49091018252602081018051600160e060020a03167f5cfc901100000000000000000000000000000000000000000000000000000000179052905160009182918291610167916105739190610d92565b6000604051808303816000865af19150503d80600081146105b0576040519150601f19603f3d011682016040523d82523d6000602084013e6105b5565b606091505b5091509150816105c65760156105da565b808060200190518101906105da9190610aee565b60030b979650505050505050565b6105f06107e6565b604051806040016040528085815260200161061b856040518060200160405280600081525086610765565b9052949350505050565b600080828061010001516000015163ffffffff16600014801561065557506101008101516040015163ffffffff16155b1561066b576101008101516276a7006040909101525b600080610167600160a060020a031634639dc711e060e060020a02886040516024016106979190610f1a565b60408051601f19818403018152918152602082018051600160e060020a03167bffffffffffffffffffffffffffffffffffffffffffffffffffffffff199094169390931790925290516106ea9190610d92565b60006040518083038185875af1925050503d8060008114610727576040519150601f19603f3d011682016040523d82523d6000602084013e61072c565b606091505b50915091508161073f5760156000610753565b808060200190518101906107539190610b09565b60039190910b97909650945050505050565b61076d61087f565b600184141561077f57600181526107df565b600284141561079c57600160a060020a03821660208201526107df565b60038414156107b157604081018390526107df565b60048414156107c657606081018390526107df565b60058414156107df57600160a060020a03821660808201525b9392505050565b60405180604001604052806000815260200161080061087f565b905290565b60405180610120016040528060608152602001606081526020016000600160a060020a0316815260200160608152602001600015158152602001600063ffffffff16815260200160001515815260200160608152602001610800604080516060810182526000808252602082018190529181019190915290565b6040518060a001604052806000151581526020016000600160a060020a0316815260200160608152602001606081526020016000600160a060020a031681525090565b600067ffffffffffffffff8311156108dc576108dc6110e1565b6108ef601f8401601f191660200161102d565b905082815283838301111561090357600080fd5b828260208301376000602084830101529392505050565b8051600381900b811461092c57600080fd5b919050565b600082601f83011261094257600080fd5b6107df838335602085016108c2565b803563ffffffff8116811461092c57600080fd5b6000806040838503121561097857600080fd5b823561098381611110565b9150602083013561099381611110565b809150509250929050565b600080600080608085870312156109b457600080fd5b84356109bf81611110565b935060208501356109cf81611110565b925060408501356109df81611110565b915060608501356109ef81611128565b939692955090935050565b600080600060608486031215610a0f57600080fd5b8335610a1a81611110565b9250602084810135610a2b81611137565b925060408581013567ffffffffffffffff80821115610a4957600080fd5b818801915088601f830112610a5d57600080fd5b8135610a70610a6b8261105e565b61102d565b81815285810190848701878402860188018d1015610a8d57600080fd5b60005b84811015610adb57813586811115610aa757600080fd5b8701603f81018f13610ab857600080fd5b610ac88f8b8301358b84016108c2565b8552509288019290880190600101610a90565b5050809750505050505050509250925092565b600060208284031215610b0057600080fd5b6107df8261091a565b60008060408385031215610b1c57600080fd5b610b258361091a565b9150602083015161099381611110565b600080600060608486031215610b4a57600080fd5b610b538461091a565b9250602080850151610b6481611137565b604086015190935067ffffffffffffffff811115610b8157600080fd5b8501601f81018713610b9257600080fd5b8051610ba0610a6b8261105e565b81815283810190838501858402850186018b1015610bbd57600080fd5b600094505b83851015610be9578051610bd581611128565b835260019490940193918501918501610bc2565b5080955050505050509250925092565b600080600080600060a08688031215610c1157600080fd5b853567ffffffffffffffff80821115610c2957600080fd5b610c3589838a01610931565b96506020880135915080821115610c4b57600080fd5b610c5789838a01610931565b95506040880135915080821115610c6d57600080fd5b50610c7a88828901610931565b935050610c8960608701610951565b9150610c9760808701610951565b90509295509295909350565b600081518084526020808501808196508284028101915082860160005b85811015610d59578284038952815160408151865286820151915080878701528151151581870152868201516060600160a060020a03808316828a015283850151935060a09250608083818b0152610d1b60e08b0186610d66565b928601518a8403603f1901858c0152929450610d378584610d66565b9501511660c09890980197909752505098850198935090840190600101610cc0565b5091979650505050505050565b60008151808452610d7e816020860160208601611082565b601f01601f19169290920160200192915050565b60008251610da4818460208701611082565b9190910192915050565b600160a060020a0383168152604060208201526000610dd06040830184610ca3565b949350505050565b600060608201600160a060020a0386168352602067ffffffffffffffff861681850152606060408501528185518084526080860191506080838202870101935082870160005b82811015610e4c57607f19888703018452610e3a868351610d66565b95509284019290840190600101610e1e565b50939998505050505050505050565b600060608201858352602067ffffffffffffffff86168185015260606040850152818551808452608086019150828701935060005b81811015610eaf57845160070b83529383019391830191600101610e90565b509098975050505050505050565b60208082526023908201527f4661696c656420746f20637265617465206e6f6e2d66756e6769626c6520746f60408201527f6b656e0000000000000000000000000000000000000000000000000000000000606082015260800190565b60208152600082516101606020840152610f38610180840182610d66565b90506020840151601f1980858403016040860152610f568383610d66565b925060408601519150610f746060860183600160a060020a03169052565b6060860151915080858403016080860152610f8f8383610d66565b925060808601519150610fa660a086018315159052565b60a086015163ffffffff811660c0870152915060c086015180151560e0870152915060e08601519150610100818685030181870152610fe58484610ca3565b90870151805163ffffffff9081166101208901526020820151600160a060020a031661014089015260408201511661016088015290935091506110259050565b509392505050565b604051601f8201601f1916810167ffffffffffffffff81118282101715611056576110566110e1565b604052919050565b600067ffffffffffffffff821115611078576110786110e1565b5060209081020190565b60005b8381101561109d578181015183820152602001611085565b838111156110ac576000848401525b50505050565b7f4e487b7100000000000000000000000000000000000000000000000000000000600052603260045260246000fd5b7f4e487b7100000000000000000000000000000000000000000000000000000000600052604160045260246000fd5b600160a060020a038116811461112557600080fd5b50565b8060070b811461112557600080fd5b67ffffffffffffffff8116811461112557600080fdfea26469706673582212201d5307c85a21ff93d590aa7113dade44f97a3ea7c81cd8630137596a23fd59a964736f6c63430008060033",
  "immutableReferences": {},
  "source": "// SPDX-License-Identifier: GPL-3.0\r\npragma solidity >=0.6.0 <0.9.0;\r\n \r\nimport './HederaResponseCodes.sol';\r\nimport './IHederaTokenService.sol';\r\nimport './HederaTokenService.sol';\r\nimport './ExpiryHelper.sol';\r\n \r\ncontract TokenCreator is ExpiryHelper{\r\n \r\n   function createNonFungible(\r\n           string memory name,\r\n           string memory symbol,\r\n           string memory memo,\r\n           uint32 maxSupply,\r\n           uint32 autoRenewPeriod\r\n       ) external payable returns (address, IHederaTokenService.TokenKey[] memory){\r\n \r\n       // Instantiate the list of keys we'll use for token create\r\n        IHederaTokenService.TokenKey[] memory keys = new IHederaTokenService.TokenKey[](1);\r\n        // use the helper methods in KeyHelper to create basic key\r\n        keys[0] = createSingleKey(HederaTokenService.SUPPLY_KEY_TYPE, KeyHelper.CONTRACT_ID_KEY, address(this));\r\n\r\n        IHederaTokenService.HederaToken memory token;\r\n        token.name = name;\r\n        token.symbol = symbol;\r\n        token.memo = memo;\r\n        token.treasury = address(this);\r\n        token.tokenSupplyType = true; // set supply to FINITE\r\n        token.tokenKeys = keys;\r\n        token.maxSupply = maxSupply;\r\n        token.freezeDefault = false;\r\n        token.expiry = createAutoRenewExpiry(address(this), autoRenewPeriod); // Contract automatically renew by himself\r\n \r\n       (int responseCode, address createdToken) = HederaTokenService.createNonFungibleToken(token);\r\n \r\n       if(responseCode != HederaResponseCodes.SUCCESS){\r\n           revert(\"Failed to create non-fungible token\");\r\n       }\r\n       return (createdToken, keys);\r\n   }\r\n\r\n    function mintNonFungibleToken(\r\n           address token,\r\n           uint64 amount,\r\n           bytes[] memory metadata\r\n       ) public returns (int responseCode, uint64 newTotalSupply, int64[] memory serialNumbers)  {\r\n        (responseCode, newTotalSupply, serialNumbers) = HederaTokenService.mintToken(token, amount, metadata);\r\n       \r\n        if (responseCode != HederaResponseCodes.SUCCESS) {\r\n            revert();\r\n        }\r\n    }\r\n\r\n    function transferNonFungibleToken(\r\n           address token,\r\n           address sender,\r\n           address receiver,\r\n           int64 serialNumber\r\n       ) external payable {\r\n \r\n       (int responseCode) = \r\n       HederaTokenService.transferNFT(token, sender, receiver, serialNumber);\r\n \r\n       if(responseCode != HederaResponseCodes.SUCCESS){\r\n           revert(\"Failed to create non-fungible token\");\r\n       }\r\n   }\r\n\r\n    function associateNonFungibleToken(\r\n           address account,\r\n           address token\r\n       ) external {\r\n \r\n       (int responseCode) = \r\n       HederaTokenService.associateToken(account, token);\r\n \r\n       if(responseCode != HederaResponseCodes.SUCCESS){\r\n           revert(\"Failed to create non-fungible token\");\r\n       }\r\n   }\r\n \r\n}",
  "sourcePath": "C:\\ACCUBITS\\PROJECT\\HEDERA_NFT\\contracts\\TokenContract.sol",
  "compiler": {
    "name": "solc",
    "version": "0.8.6+commit.11564f7e.Emscripten.clang"
  },
  "schemaVersion": "3.4.3",
  "updatedAt": "2022-12-05T08:56:19.755Z",
  "devdoc": {
    "kind": "dev",
    "methods": {},
    "version": 1
  },
  "userdoc": {
    "kind": "user",
    "methods": {},
    "version": 1
  }
}